{
  "_format": "hh-sol-artifact-1",
  "contractName": "Payouts",
  "sourceName": "contracts/Payouts.sol",
  "abi": [
    {
      "inputs": [
        {
          "internalType": "address",
          "name": "_payeeAddress",
          "type": "address"
        },
        {
          "internalType": "uint256",
          "name": "_payeeSplit",
          "type": "uint256"
        }
      ],
      "name": "addPayee",
      "outputs": [],
      "stateMutability": "nonpayable",
      "type": "function"
    },
    {
      "inputs": [
        {
          "internalType": "address",
          "name": "_originalPayeeAddress",
          "type": "address"
        },
        {
          "internalType": "address",
          "name": "_newPayeeAddress",
          "type": "address"
        },
        {
          "internalType": "uint256",
          "name": "_payeeSplit",
          "type": "uint256"
        }
      ],
      "name": "editPayee",
      "outputs": [],
      "stateMutability": "nonpayable",
      "type": "function"
    },
    {
      "inputs": [],
      "name": "getBalance",
      "outputs": [
        {
          "internalType": "uint256",
          "name": "",
          "type": "uint256"
        }
      ],
      "stateMutability": "view",
      "type": "function"
    },
    {
      "inputs": [
        {
          "internalType": "address",
          "name": "_payeeAddress",
          "type": "address"
        }
      ],
      "name": "getPayeeSplit",
      "outputs": [
        {
          "internalType": "uint256",
          "name": "",
          "type": "uint256"
        }
      ],
      "stateMutability": "view",
      "type": "function"
    },
    {
      "inputs": [],
      "name": "getPayees",
      "outputs": [
        {
          "components": [
            {
              "internalType": "address",
              "name": "accountAddress",
              "type": "address"
            },
            {
              "internalType": "uint256",
              "name": "split",
              "type": "uint256"
            }
          ],
          "internalType": "struct Payouts.Payee[]",
          "name": "",
          "type": "tuple[]"
        }
      ],
      "stateMutability": "view",
      "type": "function"
    },
    {
      "inputs": [],
      "name": "isActivated",
      "outputs": [
        {
          "internalType": "bool",
          "name": "",
          "type": "bool"
        }
      ],
      "stateMutability": "view",
      "type": "function"
    },
    {
      "inputs": [
        {
          "internalType": "address",
          "name": "_payeeAddress",
          "type": "address"
        }
      ],
      "name": "removePayee",
      "outputs": [],
      "stateMutability": "nonpayable",
      "type": "function"
    },
    {
      "inputs": [],
      "name": "withdraw",
      "outputs": [],
      "stateMutability": "nonpayable",
      "type": "function"
    },
    {
      "stateMutability": "payable",
      "type": "receive"
    }
  ],
  "bytecode": "0x608060405234801561001057600080fd5b50612154806100206000396000f3fe60806040526004361061007f5760003560e01c80633ed358551161004e5780633ed35855146101c05780634a8c1fb4146101e957806356d47c7f146102145780635e54f6991461023d57610125565b806312065fe01461012a57806318f9b0231461015557806327f381131461017e5780633ccfd60b146101a957610125565b3661012557600160003373ffffffffffffffffffffffffffffffffffffffff1673ffffffffffffffffffffffffffffffffffffffff16815260200190815260200160002060009054906101000a900460ff16610110576040517f08c379a000000000000000000000000000000000000000000000000000000000815260040161010790611cee565b60405180910390fd5b6000341115610123576101223461027a565b5b005b600080fd5b34801561013657600080fd5b5061013f6105a7565b60405161014c9190611d0e565b60405180910390f35b34801561016157600080fd5b5061017c600480360381019061017791906119a7565b6105ed565b005b34801561018a57600080fd5b5061019361088c565b6040516101a09190611bf1565b60405180910390f35b3480156101b557600080fd5b506101be610afd565b005b3480156101cc57600080fd5b506101e760048036038101906101e2919061192f565b610cb5565b005b3480156101f557600080fd5b506101fe610f23565b60405161020b9190611c13565b60405180910390f35b34801561022057600080fd5b5061023b60048036038101906102369190611958565b610f77565b005b34801561024957600080fd5b50610264600480360381019061025f919061192f565b61131a565b6040516102719190611d0e565b60405180910390f35b6102c1600260003373ffffffffffffffffffffffffffffffffffffffff1673ffffffffffffffffffffffffffffffffffffffff1681526020019081526020016000206113a0565b81101561032257806000803373ffffffffffffffffffffffffffffffffffffffff1673ffffffffffffffffffffffffffffffffffffffff16815260200190815260200160002060008282546103169190611d7e565b925050819055506105a4565b600061036b600260003373ffffffffffffffffffffffffffffffffffffffff1673ffffffffffffffffffffffffffffffffffffffff1681526020019081526020016000206113b5565b9050600082905060005b825181101561054b576000600460003373ffffffffffffffffffffffffffffffffffffffff1673ffffffffffffffffffffffffffffffffffffffff16815260200190815260200160002060008584815181106103fa577f4e487b7100000000000000000000000000000000000000000000000000000000600052603260045260246000fd5b602002602001015173ffffffffffffffffffffffffffffffffffffffff1673ffffffffffffffffffffffffffffffffffffffff16815260200190815260200160002054600360003373ffffffffffffffffffffffffffffffffffffffff1673ffffffffffffffffffffffffffffffffffffffff16815260200190815260200160002054866104889190611dd4565b6104929190611e05565b905080836104a09190611e5f565b9250806000808685815181106104df577f4e487b7100000000000000000000000000000000000000000000000000000000600052603260045260246000fd5b602002602001015173ffffffffffffffffffffffffffffffffffffffff1673ffffffffffffffffffffffffffffffffffffffff16815260200190815260200160002060008282546105309190611d7e565b9250508190555050808061054390611edb565b915050610375565b50806000803373ffffffffffffffffffffffffffffffffffffffff1673ffffffffffffffffffffffffffffffffffffffff168152602001908152602001600020600082825461059a9190611d7e565b9250508190555050505b50565b60008060003373ffffffffffffffffffffffffffffffffffffffff1673ffffffffffffffffffffffffffffffffffffffff16815260200190815260200160002054905090565b6000600460003373ffffffffffffffffffffffffffffffffffffffff1673ffffffffffffffffffffffffffffffffffffffff16815260200190815260200160002060008473ffffffffffffffffffffffffffffffffffffffff1673ffffffffffffffffffffffffffffffffffffffff16815260200190815260200160002054146106ac576040517f08c379a00000000000000000000000000000000000000000000000000000000081526004016106a390611c4e565b60405180910390fd5b600073ffffffffffffffffffffffffffffffffffffffff168273ffffffffffffffffffffffffffffffffffffffff16141561071c576040517f08c379a000000000000000000000000000000000000000000000000000000000815260040161071390611c8e565b60405180910390fd5b6000811161075f576040517f08c379a000000000000000000000000000000000000000000000000000000000815260040161075690611c2e565b60405180910390fd5b6107a7600260003373ffffffffffffffffffffffffffffffffffffffff1673ffffffffffffffffffffffffffffffffffffffff168152602001908152602001600020836113d6565b5080600360003373ffffffffffffffffffffffffffffffffffffffff1673ffffffffffffffffffffffffffffffffffffffff16815260200190815260200160002060008282546107f79190611d7e565b9250508190555080600460003373ffffffffffffffffffffffffffffffffffffffff1673ffffffffffffffffffffffffffffffffffffffff16815260200190815260200160002060008473ffffffffffffffffffffffffffffffffffffffff1673ffffffffffffffffffffffffffffffffffffffff1681526020019081526020016000208190555061088833611406565b5050565b606060006108d7600260003373ffffffffffffffffffffffffffffffffffffffff1673ffffffffffffffffffffffffffffffffffffffff1681526020019081526020016000206113a0565b905060008167ffffffffffffffff81111561091b577f4e487b7100000000000000000000000000000000000000000000000000000000600052604160045260246000fd5b60405190808252806020026020018201604052801561095457816020015b6109416118d5565b8152602001906001900390816109395790505b50905060005b82811015610af457600060405180604001604052806109b7600260003373ffffffffffffffffffffffffffffffffffffffff1673ffffffffffffffffffffffffffffffffffffffff168152602001908152602001600020856115b4565b73ffffffffffffffffffffffffffffffffffffffff168152602001600460003373ffffffffffffffffffffffffffffffffffffffff1673ffffffffffffffffffffffffffffffffffffffff1681526020019081526020016000206000610a5b600260003373ffffffffffffffffffffffffffffffffffffffff1673ffffffffffffffffffffffffffffffffffffffff168152602001908152602001600020876115b4565b73ffffffffffffffffffffffffffffffffffffffff1673ffffffffffffffffffffffffffffffffffffffff16815260200190815260200160002054815250905080838381518110610ad5577f4e487b7100000000000000000000000000000000000000000000000000000000600052603260045260246000fd5b6020026020010181905250508080610aec90611edb565b91505061095a565b50809250505090565b60008060003373ffffffffffffffffffffffffffffffffffffffff1673ffffffffffffffffffffffffffffffffffffffff1681526020019081526020016000205411610b7e576040517f08c379a0000000000000000000000000000000000000000000000000000000008152600401610b7590611c6e565b60405180910390fd5b60008060003373ffffffffffffffffffffffffffffffffffffffff1673ffffffffffffffffffffffffffffffffffffffff16815260200190815260200160002054905060008060003373ffffffffffffffffffffffffffffffffffffffff1673ffffffffffffffffffffffffffffffffffffffff1681526020019081526020016000208190555060003373ffffffffffffffffffffffffffffffffffffffff1682604051610c2b90611bdc565b60006040518083038185875af1925050503d8060008114610c68576040519150601f19603f3d011682016040523d82523d6000602084013e610c6d565b606091505b5050905080610cb1576040517f08c379a0000000000000000000000000000000000000000000000000000000008152600401610ca890611cce565b60405180910390fd5b5050565b6000600460003373ffffffffffffffffffffffffffffffffffffffff1673ffffffffffffffffffffffffffffffffffffffff16815260200190815260200160002060008373ffffffffffffffffffffffffffffffffffffffff1673ffffffffffffffffffffffffffffffffffffffff1681526020019081526020016000205411610d74576040517f08c379a0000000000000000000000000000000000000000000000000000000008152600401610d6b90611cae565b60405180910390fd5b6000600260003373ffffffffffffffffffffffffffffffffffffffff1673ffffffffffffffffffffffffffffffffffffffff1681526020019081526020016000209050610dc181836115ce565b50600460003373ffffffffffffffffffffffffffffffffffffffff1673ffffffffffffffffffffffffffffffffffffffff16815260200190815260200160002060008373ffffffffffffffffffffffffffffffffffffffff1673ffffffffffffffffffffffffffffffffffffffff16815260200190815260200160002054600360003373ffffffffffffffffffffffffffffffffffffffff1673ffffffffffffffffffffffffffffffffffffffff1681526020019081526020016000206000828254610e8d9190611e5f565b925050819055506000600460003373ffffffffffffffffffffffffffffffffffffffff1673ffffffffffffffffffffffffffffffffffffffff16815260200190815260200160002060008473ffffffffffffffffffffffffffffffffffffffff1673ffffffffffffffffffffffffffffffffffffffff16815260200190815260200160002081905550610f1f33611406565b5050565b6000600160003373ffffffffffffffffffffffffffffffffffffffff1673ffffffffffffffffffffffffffffffffffffffff16815260200190815260200160002060009054906101000a900460ff16905090565b8173ffffffffffffffffffffffffffffffffffffffff168373ffffffffffffffffffffffffffffffffffffffff1614610fc257610fb383610cb5565b610fbd82826105ed565b611315565b80600460003373ffffffffffffffffffffffffffffffffffffffff1673ffffffffffffffffffffffffffffffffffffffff16815260200190815260200160002060008473ffffffffffffffffffffffffffffffffffffffff1673ffffffffffffffffffffffffffffffffffffffff168152602001908152602001600020541461131457600081600460003373ffffffffffffffffffffffffffffffffffffffff1673ffffffffffffffffffffffffffffffffffffffff16815260200190815260200160002060008573ffffffffffffffffffffffffffffffffffffffff1673ffffffffffffffffffffffffffffffffffffffff1681526020019081526020016000205411156111b05781600460003373ffffffffffffffffffffffffffffffffffffffff1673ffffffffffffffffffffffffffffffffffffffff16815260200190815260200160002060008573ffffffffffffffffffffffffffffffffffffffff1673ffffffffffffffffffffffffffffffffffffffff168152602001908152602001600020546111539190611e5f565b905080600360003373ffffffffffffffffffffffffffffffffffffffff1673ffffffffffffffffffffffffffffffffffffffff16815260200190815260200160002060008282546111a49190611e5f565b92505081905550611291565b600460003373ffffffffffffffffffffffffffffffffffffffff1673ffffffffffffffffffffffffffffffffffffffff16815260200190815260200160002060008473ffffffffffffffffffffffffffffffffffffffff1673ffffffffffffffffffffffffffffffffffffffff16815260200190815260200160002054826112389190611e5f565b905080600360003373ffffffffffffffffffffffffffffffffffffffff1673ffffffffffffffffffffffffffffffffffffffff16815260200190815260200160002060008282546112899190611d7e565b925050819055505b81600460003373ffffffffffffffffffffffffffffffffffffffff1673ffffffffffffffffffffffffffffffffffffffff16815260200190815260200160002060008573ffffffffffffffffffffffffffffffffffffffff1673ffffffffffffffffffffffffffffffffffffffff16815260200190815260200160002081905550505b5b505050565b6000600460003373ffffffffffffffffffffffffffffffffffffffff1673ffffffffffffffffffffffffffffffffffffffff16815260200190815260200160002060008373ffffffffffffffffffffffffffffffffffffffff1673ffffffffffffffffffffffffffffffffffffffff168152602001908152602001600020549050919050565b60006113ae826000016115fe565b9050919050565b606060006113c58360000161160f565b905060608190508092505050919050565b60006113fe836000018373ffffffffffffffffffffffffffffffffffffffff1660001b61166b565b905092915050565b600061144f600260008473ffffffffffffffffffffffffffffffffffffffff1673ffffffffffffffffffffffffffffffffffffffff1681526020019081526020016000206113a0565b1480156114a55750600160008273ffffffffffffffffffffffffffffffffffffffff1673ffffffffffffffffffffffffffffffffffffffff16815260200190815260200160002060009054906101000a900460ff165b15611507576000600160008373ffffffffffffffffffffffffffffffffffffffff1673ffffffffffffffffffffffffffffffffffffffff16815260200190815260200160002060006101000a81548160ff0219169083151502179055506115b1565b600160008273ffffffffffffffffffffffffffffffffffffffff1673ffffffffffffffffffffffffffffffffffffffff16815260200190815260200160002060009054906101000a900460ff166115b05760018060008373ffffffffffffffffffffffffffffffffffffffff1673ffffffffffffffffffffffffffffffffffffffff16815260200190815260200160002060006101000a81548160ff0219169083151502179055505b5b50565b60006115c383600001836116db565b60001c905092915050565b60006115f6836000018373ffffffffffffffffffffffffffffffffffffffff1660001b61172c565b905092915050565b600081600001805490509050919050565b60608160000180548060200260200160405190810160405280929190818152602001828054801561165f57602002820191906000526020600020905b81548152602001906001019080831161164b575b50505050509050919050565b600061167783836118b2565b6116d05782600001829080600181540180825580915050600190039060005260206000200160009091909190915055826000018054905083600101600084815260200190815260200160002081905550600190506116d5565b600090505b92915050565b6000826000018281548110611719577f4e487b7100000000000000000000000000000000000000000000000000000000600052603260045260246000fd5b9060005260206000200154905092915050565b600080836001016000848152602001908152602001600020549050600081146118a657600060018261175e9190611e5f565b90506000600186600001805490506117769190611e5f565b90508181146118315760008660000182815481106117bd577f4e487b7100000000000000000000000000000000000000000000000000000000600052603260045260246000fd5b9060005260206000200154905080876000018481548110611807577f4e487b7100000000000000000000000000000000000000000000000000000000600052603260045260246000fd5b90600052602060002001819055508387600101600083815260200190815260200160002081905550505b8560000180548061186b577f4e487b7100000000000000000000000000000000000000000000000000000000600052603160045260246000fd5b6001900381819060005260206000200160009055905585600101600086815260200190815260200160002060009055600193505050506118ac565b60009150505b92915050565b600080836001016000848152602001908152602001600020541415905092915050565b6040518060400160405280600073ffffffffffffffffffffffffffffffffffffffff168152602001600081525090565b600081359050611914816120f0565b92915050565b60008135905061192981612107565b92915050565b60006020828403121561194157600080fd5b600061194f84828501611905565b91505092915050565b60008060006060848603121561196d57600080fd5b600061197b86828701611905565b935050602061198c86828701611905565b925050604061199d8682870161191a565b9150509250925092565b600080604083850312156119ba57600080fd5b60006119c885828601611905565b92505060206119d98582860161191a565b9150509250929050565b60006119ef8383611b8f565b60408301905092915050565b611a0481611e93565b82525050565b6000611a1582611d39565b611a1f8185611d51565b9350611a2a83611d29565b8060005b83811015611a5b578151611a4288826119e3565b9750611a4d83611d44565b925050600181019050611a2e565b5085935050505092915050565b611a7181611ea5565b82525050565b6000611a84602283611d6d565b9150611a8f82611f82565b604082019050919050565b6000611aa7602083611d6d565b9150611ab282611fd1565b602082019050919050565b6000611aca601d83611d6d565b9150611ad582611ffa565b602082019050919050565b6000611aed602583611d6d565b9150611af882612023565b604082019050919050565b6000611b10601d83611d6d565b9150611b1b82612072565b602082019050919050565b6000611b33601883611d6d565b9150611b3e8261209b565b602082019050919050565b6000611b56600083611d62565b9150611b61826120c4565b600082019050919050565b6000611b79601983611d6d565b9150611b84826120c7565b602082019050919050565b604082016000820151611ba560008501826119fb565b506020820151611bb86020850182611bbe565b50505050565b611bc781611ed1565b82525050565b611bd681611ed1565b82525050565b6000611be782611b49565b9150819050919050565b60006020820190508181036000830152611c0b8184611a0a565b905092915050565b6000602082019050611c286000830184611a68565b92915050565b60006020820190508181036000830152611c4781611a77565b9050919050565b60006020820190508181036000830152611c6781611a9a565b9050919050565b60006020820190508181036000830152611c8781611abd565b9050919050565b60006020820190508181036000830152611ca781611ae0565b9050919050565b60006020820190508181036000830152611cc781611b03565b9050919050565b60006020820190508181036000830152611ce781611b26565b9050919050565b60006020820190508181036000830152611d0781611b6c565b9050919050565b6000602082019050611d236000830184611bcd565b92915050565b6000819050602082019050919050565b600081519050919050565b6000602082019050919050565b600082825260208201905092915050565b600081905092915050565b600082825260208201905092915050565b6000611d8982611ed1565b9150611d9483611ed1565b9250827fffffffffffffffffffffffffffffffffffffffffffffffffffffffffffffffff03821115611dc957611dc8611f24565b5b828201905092915050565b6000611ddf82611ed1565b9150611dea83611ed1565b925082611dfa57611df9611f53565b5b828204905092915050565b6000611e1082611ed1565b9150611e1b83611ed1565b9250817fffffffffffffffffffffffffffffffffffffffffffffffffffffffffffffffff0483118215151615611e5457611e53611f24565b5b828202905092915050565b6000611e6a82611ed1565b9150611e7583611ed1565b925082821015611e8857611e87611f24565b5b828203905092915050565b6000611e9e82611eb1565b9050919050565b60008115159050919050565b600073ffffffffffffffffffffffffffffffffffffffff82169050919050565b6000819050919050565b6000611ee682611ed1565b91507fffffffffffffffffffffffffffffffffffffffffffffffffffffffffffffffff821415611f1957611f18611f24565b5b600182019050919050565b7f4e487b7100000000000000000000000000000000000000000000000000000000600052601160045260246000fd5b7f4e487b7100000000000000000000000000000000000000000000000000000000600052601260045260246000fd5b7f596f75206d75737420616c6c6f636174652061206e6f6e2d7a65726f2073706c60008201527f6974000000000000000000000000000000000000000000000000000000000000602082015250565b7f4163636f756e7420616c72656164792061646465642061732061207061796565600082015250565b7f596f752068617665206e6f2066756e647320746f207769746864726177000000600082015250565b7f43616e27742061646420746865207a65726f206164647265737320617320612060008201527f7061796565000000000000000000000000000000000000000000000000000000602082015250565b7f4163636f756e74206e6f74206c69737465642061732061207061796565000000600082015250565b7f4661696c656420746f2077697468647261772045746865720000000000000000600082015250565b50565b7f54686973207061796f7574206973206e6f742061637469766500000000000000600082015250565b6120f981611e93565b811461210457600080fd5b50565b61211081611ed1565b811461211b57600080fd5b5056fea26469706673582212205426ef6f0a631ca6c30e8fccb9e6c7c065f6953d05ec1447d258c40aad0c51b564736f6c63430008040033",
  "linkReferences": {},
  "deployedLinkReferences": {}
}